{
    "_format": "hh-sol-artifact-1",
    "contractName": "LimitOrderProtocol",
    "sourceName": "contracts/InteractionManager.sol",
    "abi": [
        {
            "inputs": [
                {
                    "internalType": "string",
                    "name": "name",
                    "type": "string"
                },
                {
                    "internalType": "string",
                    "name": "version",
                    "type": "string"
                }
            ],
            "stateMutability": "nonpayable",
            "type": "constructor"
        },
        {
            "inputs": [],
            "name": "ECDSAInvalidSignature",
            "type": "error"
        },
        {
            "inputs": [
                {
                    "internalType": "uint256",
                    "name": "length",
                    "type": "uint256"
                }
            ],
            "name": "ECDSAInvalidSignatureLength",
            "type": "error"
        },
        {
            "inputs": [
                {
                    "internalType": "bytes32",
                    "name": "s",
                    "type": "bytes32"
                }
            ],
            "name": "ECDSAInvalidSignatureS",
            "type": "error"
        },
        {
            "inputs": [],
            "name": "InvalidShortString",
            "type": "error"
        },
        {
            "inputs": [
                {
                    "internalType": "address",
                    "name": "owner",
                    "type": "address"
                }
            ],
            "name": "OwnableInvalidOwner",
            "type": "error"
        },
        {
            "inputs": [
                {
                    "internalType": "address",
                    "name": "account",
                    "type": "address"
                }
            ],
            "name": "OwnableUnauthorizedAccount",
            "type": "error"
        },
        {
            "inputs": [
                {
                    "internalType": "address",
                    "name": "token",
                    "type": "address"
                }
            ],
            "name": "SafeERC20FailedOperation",
            "type": "error"
        },
        {
            "inputs": [
                {
                    "internalType": "string",
                    "name": "str",
                    "type": "string"
                }
            ],
            "name": "StringTooLong",
            "type": "error"
        },
        {
            "anonymous": false,
            "inputs": [],
            "name": "EIP712DomainChanged",
            "type": "event"
        },
        {
            "anonymous": false,
            "inputs": [
                {
                    "indexed": true,
                    "internalType": "bytes32",
                    "name": "orderHash",
                    "type": "bytes32"
                },
                {
                    "indexed": true,
                    "internalType": "address",
                    "name": "resolver",
                    "type": "address"
                }
            ],
            "name": "OrderFilled",
            "type": "event"
        },
        {
            "anonymous": false,
            "inputs": [
                {
                    "indexed": true,
                    "internalType": "bytes32",
                    "name": "orderHash",
                    "type": "bytes32"
                },
                {
                    "indexed": true,
                    "internalType": "address",
                    "name": "maker",
                    "type": "address"
                }
            ],
            "name": "OrderValidated",
            "type": "event"
        },
        {
            "anonymous": false,
            "inputs": [
                {
                    "indexed": true,
                    "internalType": "address",
                    "name": "previousOwner",
                    "type": "address"
                },
                {
                    "indexed": true,
                    "internalType": "address",
                    "name": "newOwner",
                    "type": "address"
                }
            ],
            "name": "OwnershipTransferred",
            "type": "event"
        },
        {
            "inputs": [],
            "name": "eip712Domain",
            "outputs": [
                {
                    "internalType": "bytes1",
                    "name": "fields",
                    "type": "bytes1"
                },
                {
                    "internalType": "string",
                    "name": "name",
                    "type": "string"
                },
                {
                    "internalType": "string",
                    "name": "version",
                    "type": "string"
                },
                {
                    "internalType": "uint256",
                    "name": "chainId",
                    "type": "uint256"
                },
                {
                    "internalType": "address",
                    "name": "verifyingContract",
                    "type": "address"
                },
                {
                    "internalType": "bytes32",
                    "name": "salt",
                    "type": "bytes32"
                },
                {
                    "internalType": "uint256[]",
                    "name": "extensions",
                    "type": "uint256[]"
                }
            ],
            "stateMutability": "view",
            "type": "function"
        },
        {
            "inputs": [
                {
                    "internalType": "bytes32",
                    "name": "",
                    "type": "bytes32"
                }
            ],
            "name": "orders",
            "outputs": [
                {
                    "internalType": "address",
                    "name": "maker",
                    "type": "address"
                },
                {
                    "internalType": "address",
                    "name": "makerAsset",
                    "type": "address"
                },
                {
                    "internalType": "address",
                    "name": "takerAsset",
                    "type": "address"
                },
                {
                    "internalType": "uint256",
                    "name": "makingAmount",
                    "type": "uint256"
                },
                {
                    "internalType": "uint256",
                    "name": "takingAmount",
                    "type": "uint256"
                },
                {
                    "internalType": "address",
                    "name": "receiver",
                    "type": "address"
                },
                {
                    "internalType": "bytes32",
                    "name": "hashlock",
                    "type": "bytes32"
                },
                {
                    "internalType": "uint256",
                    "name": "salt",
                    "type": "uint256"
                }
            ],
            "stateMutability": "view",
            "type": "function"
        },
        {
            "inputs": [],
            "name": "owner",
            "outputs": [
                {
                    "internalType": "address",
                    "name": "",
                    "type": "address"
                }
            ],
            "stateMutability": "view",
            "type": "function"
        },
        {
            "inputs": [
                {
                    "internalType": "bytes32",
                    "name": "orderHash",
                    "type": "bytes32"
                },
                {
                    "internalType": "address",
                    "name": "factory",
                    "type": "address"
                },
                {
                    "internalType": "uint256",
                    "name": "safetyDeposit",
                    "type": "uint256"
                }
            ],
            "name": "postInteraction",
            "outputs": [],
            "stateMutability": "nonpayable",
            "type": "function"
        },
        {
            "inputs": [
                {
                    "components": [
                        {
                            "internalType": "address",
                            "name": "maker",
                            "type": "address"
                        },
                        {
                            "internalType": "address",
                            "name": "makerAsset",
                            "type": "address"
                        },
                        {
                            "internalType": "address",
                            "name": "takerAsset",
                            "type": "address"
                        },
                        {
                            "internalType": "uint256",
                            "name": "makingAmount",
                            "type": "uint256"
                        },
                        {
                            "internalType": "uint256",
                            "name": "takingAmount",
                            "type": "uint256"
                        },
                        {
                            "internalType": "address",
                            "name": "receiver",
                            "type": "address"
                        },
                        {
                            "internalType": "bytes32",
                            "name": "hashlock",
                            "type": "bytes32"
                        },
                        {
                            "internalType": "uint256",
                            "name": "salt",
                            "type": "uint256"
                        }
                    ],
                    "internalType": "struct IAtomicSwapLOP.Order",
                    "name": "order",
                    "type": "tuple"
                },
                {
                    "internalType": "bytes",
                    "name": "signature",
                    "type": "bytes"
                }
            ],
            "name": "preInteraction",
            "outputs": [],
            "stateMutability": "payable",
            "type": "function"
        },
        {
            "inputs": [],
            "name": "renounceOwnership",
            "outputs": [],
            "stateMutability": "nonpayable",
            "type": "function"
        },
        {
            "inputs": [
                {
                    "internalType": "address",
                    "name": "newOwner",
                    "type": "address"
                }
            ],
            "name": "transferOwnership",
            "outputs": [],
            "stateMutability": "nonpayable",
            "type": "function"
        },
        {
            "inputs": [
                {
                    "internalType": "bytes32",
                    "name": "",
                    "type": "bytes32"
                }
            ],
            "name": "validatedOrders",
            "outputs": [
                {
                    "internalType": "bool",
                    "name": "",
                    "type": "bool"
                }
            ],
            "stateMutability": "view",
            "type": "function"
        }
    ],
    "bytecode": "0x61016060405234801561001157600080fd5b50604051612f18380380612f18833981810160405281019061003391906104c1565b33828261004a60008361016960201b90919060201c565b610120818152505061006660018261016960201b90919060201c565b6101408181525050818051906020012060e08181525050808051906020012061010081815250504660a081815250506100a36101b960201b60201c565b608081815250503073ffffffffffffffffffffffffffffffffffffffff1660c08173ffffffffffffffffffffffffffffffffffffffff16815250505050600073ffffffffffffffffffffffffffffffffffffffff168173ffffffffffffffffffffffffffffffffffffffff16036101525760006040517f1e4fbdf7000000000000000000000000000000000000000000000000000000008152600401610149919061057a565b60405180910390fd5b6101618161021460201b60201c565b505050610a06565b600060208351101561018b57610184836102da60201b60201c565b90506101b3565b8261019b8361034260201b60201c565b60000190816101aa91906107b6565b5060ff60001b90505b92915050565b60007f8b73c3c69bb8fe3d512ecc4cf759cc79239f7b179b0ffacaa9a75d522b39400f60e0516101005146306040516020016101f99594939291906108b0565b60405160208183030381529060405280519060200120905090565b6000600260009054906101000a900473ffffffffffffffffffffffffffffffffffffffff16905081600260006101000a81548173ffffffffffffffffffffffffffffffffffffffff021916908373ffffffffffffffffffffffffffffffffffffffff1602179055508173ffffffffffffffffffffffffffffffffffffffff168173ffffffffffffffffffffffffffffffffffffffff167f8be0079c531659141344cd1fd0a4f28419497f9722a3daafe3b4186f6b6457e060405160405180910390a35050565b600080829050601f8151111561032757826040517f305a27a900000000000000000000000000000000000000000000000000000000815260040161031e919061094d565b60405180910390fd5b8051816103339061099f565b60001c1760001b915050919050565b6000819050919050565b6000604051905090565b600080fd5b600080fd5b600080fd5b600080fd5b6000601f19601f8301169050919050565b7f4e487b7100000000000000000000000000000000000000000000000000000000600052604160045260246000fd5b6103b38261036a565b810181811067ffffffffffffffff821117156103d2576103d161037b565b5b80604052505050565b60006103e561034c565b90506103f182826103aa565b919050565b600067ffffffffffffffff8211156104115761041061037b565b5b61041a8261036a565b9050602081019050919050565b60005b8381101561044557808201518184015260208101905061042a565b60008484015250505050565b600061046461045f846103f6565b6103db565b9050828152602081018484840111156104805761047f610365565b5b61048b848285610427565b509392505050565b600082601f8301126104a8576104a7610360565b5b81516104b8848260208601610451565b91505092915050565b600080604083850312156104d8576104d7610356565b5b600083015167ffffffffffffffff8111156104f6576104f561035b565b5b61050285828601610493565b925050602083015167ffffffffffffffff8111156105235761052261035b565b5b61052f85828601610493565b9150509250929050565b600073ffffffffffffffffffffffffffffffffffffffff82169050919050565b600061056482610539565b9050919050565b61057481610559565b82525050565b600060208201905061058f600083018461056b565b92915050565b600081519050919050565b7f4e487b7100000000000000000000000000000000000000000000000000000000600052602260045260246000fd5b600060028204905060018216806105e757607f821691505b6020821081036105fa576105f96105a0565b5b50919050565b60008190508160005260206000209050919050565b60006020601f8301049050919050565b600082821b905092915050565b6000600883026106627fffffffffffffffffffffffffffffffffffffffffffffffffffffffffffffffff82610625565b61066c8683610625565b95508019841693508086168417925050509392505050565b6000819050919050565b6000819050919050565b60006106b36106ae6106a984610684565b61068e565b610684565b9050919050565b6000819050919050565b6106cd83610698565b6106e16106d9826106ba565b848454610632565b825550505050565b600090565b6106f66106e9565b6107018184846106c4565b505050565b5b818110156107255761071a6000826106ee565b600181019050610707565b5050565b601f82111561076a5761073b81610600565b61074484610615565b81016020851015610753578190505b61076761075f85610615565b830182610706565b50505b505050565b600082821c905092915050565b600061078d6000198460080261076f565b1980831691505092915050565b60006107a6838361077c565b9150826002028217905092915050565b6107bf82610595565b67ffffffffffffffff8111156107d8576107d761037b565b5b6107e282546105cf565b6107ed828285610729565b600060209050601f831160018114610820576000841561080e578287015190505b610818858261079a565b865550610880565b601f19841661082e86610600565b60005b8281101561085657848901518255600182019150602085019450602081019050610831565b86831015610873578489015161086f601f89168261077c565b8355505b6001600288020188555050505b505050505050565b6000819050919050565b61089b81610888565b82525050565b6108aa81610684565b82525050565b600060a0820190506108c56000830188610892565b6108d26020830187610892565b6108df6040830186610892565b6108ec60608301856108a1565b6108f9608083018461056b565b9695505050505050565b600082825260208201905092915050565b600061091f82610595565b6109298185610903565b9350610939818560208601610427565b6109428161036a565b840191505092915050565b600060208201905081810360008301526109678184610914565b905092915050565b600081519050919050565b6000819050602082019050919050565b60006109968251610888565b80915050919050565b60006109aa8261096f565b826109b48461097a565b90506109bf8161098a565b925060208210156109ff576109fa7fffffffffffffffffffffffffffffffffffffffffffffffffffffffffffffffff83602003600802610625565b831692505b5050919050565b60805160a05160c05160e0516101005161012051610140516124b8610a606000396000610ef201526000610eb70152600061143601526000611415015260006110c80152600061111e0152600061114701526124b86000f3fe60806040526004361061007b5760003560e01c80638da5cb5b1161004e5780638da5cb5b1461012e5780639c3f1e9014610159578063c6b759a71461019d578063f2fde38b146101b95761007b565b806307c6b17014610080578063715018a6146100a9578063788517de146100c057806384b0196e146100fd575b600080fd5b34801561008c57600080fd5b506100a760048036038101906100a2919061169e565b6101e2565b005b3480156100b557600080fd5b506100be61069a565b005b3480156100cc57600080fd5b506100e760048036038101906100e291906116f1565b6106ae565b6040516100f49190611739565b60405180910390f35b34801561010957600080fd5b506101126106ce565b604051610125979695949392919061190a565b60405180910390f35b34801561013a57600080fd5b50610143610778565b604051610150919061198e565b60405180910390f35b34801561016557600080fd5b50610180600480360381019061017b91906116f1565b6107a2565b6040516101949897969594939291906119a9565b60405180910390f35b6101b760048036038101906101b29190611ab1565b61086a565b005b3480156101c557600080fd5b506101e060048036038101906101db9190611b13565b610c59565b005b6003600084815260200190815260200160002060009054906101000a900460ff16610242576040517f08c379a000000000000000000000000000000000000000000000000000000000815260040161023990611b8c565b60405180910390fd5b600060046000858152602001908152602001600020604051806101000160405290816000820160009054906101000a900473ffffffffffffffffffffffffffffffffffffffff1673ffffffffffffffffffffffffffffffffffffffff1673ffffffffffffffffffffffffffffffffffffffff1681526020016001820160009054906101000a900473ffffffffffffffffffffffffffffffffffffffff1673ffffffffffffffffffffffffffffffffffffffff1673ffffffffffffffffffffffffffffffffffffffff1681526020016002820160009054906101000a900473ffffffffffffffffffffffffffffffffffffffff1673ffffffffffffffffffffffffffffffffffffffff1673ffffffffffffffffffffffffffffffffffffffff16815260200160038201548152602001600482015481526020016005820160009054906101000a900473ffffffffffffffffffffffffffffffffffffffff1673ffffffffffffffffffffffffffffffffffffffff1673ffffffffffffffffffffffffffffffffffffffff168152602001600682015481526020016007820154815250509050600073ffffffffffffffffffffffffffffffffffffffff16816020015173ffffffffffffffffffffffffffffffffffffffff16036104a4578273ffffffffffffffffffffffffffffffffffffffff1663ec38f8d1826060015183873386606001518760800151896040518863ffffffff1660e01b815260040161046d96959493929190611c6c565b6000604051808303818588803b15801561048657600080fd5b505af115801561049a573d6000803e3d6000fd5b505050505061055b565b8273ffffffffffffffffffffffffffffffffffffffff1663ec38f8d182863385606001518660800151886040518763ffffffff1660e01b81526004016104ef96959493929190611c6c565b600060405180830381600087803b15801561050957600080fd5b505af115801561051d573d6000803e3d6000fd5b5050505061055a8160000151848360600151846020015173ffffffffffffffffffffffffffffffffffffffff16610cdf909392919063ffffffff16565b5b6003600085815260200190815260200160002060006101000a81549060ff021916905560046000858152602001908152602001600020600080820160006101000a81549073ffffffffffffffffffffffffffffffffffffffff02191690556001820160006101000a81549073ffffffffffffffffffffffffffffffffffffffff02191690556002820160006101000a81549073ffffffffffffffffffffffffffffffffffffffff0219169055600382016000905560048201600090556005820160006101000a81549073ffffffffffffffffffffffffffffffffffffffff02191690556006820160009055600782016000905550503373ffffffffffffffffffffffffffffffffffffffff16847f0555709e59fb225fcf12cc582a9e5f7fd8eea54c91f3dc500ab9d8c37c50777060405160405180910390a350505050565b6106a2610d61565b6106ac6000610de8565b565b60036020528060005260406000206000915054906101000a900460ff1681565b6000606080600080600060606106e2610eae565b6106ea610ee9565b46306000801b600067ffffffffffffffff81111561070b5761070a611cd3565b5b6040519080825280602002602001820160405280156107395781602001602082028036833780820191505090505b507f0f00000000000000000000000000000000000000000000000000000000000000959493929190965096509650965096509650965090919293949596565b6000600260009054906101000a900473ffffffffffffffffffffffffffffffffffffffff16905090565b60046020528060005260406000206000915090508060000160009054906101000a900473ffffffffffffffffffffffffffffffffffffffff16908060010160009054906101000a900473ffffffffffffffffffffffffffffffffffffffff16908060020160009054906101000a900473ffffffffffffffffffffffffffffffffffffffff16908060030154908060040154908060050160009054906101000a900473ffffffffffffffffffffffffffffffffffffffff16908060060154908060070154905088565b60006109237f23eee84ebbde0c7461d8da9ca412eb8a9b8effd10d8edf179e9680e6311b77298560000160208101906108a39190611b13565b8660200160208101906108b69190611b13565b8760400160208101906108c99190611b13565b886060013589608001358a60a00160208101906108e69190611b13565b8b60c001358c60e0013560405160200161090899989796959493929190611d02565b60405160208183030381529060405280519060200120610f24565b905060006109758285858080601f016020809104026020016040519081016040528093929190818152602001838380828437600081840152601f19601f82011690508083019250505050505050610f3e565b905084600001602081019061098a9190611b13565b73ffffffffffffffffffffffffffffffffffffffff168173ffffffffffffffffffffffffffffffffffffffff16146109f7576040517f08c379a00000000000000000000000000000000000000000000000000000000081526004016109ee90611ddb565b60405180910390fd5b846000016020810190610a0a9190611b13565b73ffffffffffffffffffffffffffffffffffffffff163373ffffffffffffffffffffffffffffffffffffffff1614610a77576040517f08c379a0000000000000000000000000000000000000000000000000000000008152600401610a6e90611e6d565b60405180910390fd5b6003600083815260200190815260200160002060009054906101000a900460ff1615610ad8576040517f08c379a0000000000000000000000000000000000000000000000000000000008152600401610acf90611ed9565b60405180910390fd5b600073ffffffffffffffffffffffffffffffffffffffff16856020016020810190610b039190611b13565b73ffffffffffffffffffffffffffffffffffffffff1603610b695784606001353414610b64576040517f08c379a0000000000000000000000000000000000000000000000000000000008152600401610b5b90611f45565b60405180910390fd5b610bad565b60003414610bac576040517f08c379a0000000000000000000000000000000000000000000000000000000008152600401610ba390611fb1565b60405180910390fd5b5b60016003600084815260200190815260200160002060006101000a81548160ff02191690831515021790555084600460008481526020019081526020016000208181610bf991906122c4565b905050846000016020810190610c0f9190611b13565b73ffffffffffffffffffffffffffffffffffffffff16827f09e126c208c7c6b8de91fb519ff46ef1f6eb471f6376862ca4de42ea000026d660405160405180910390a35050505050565b610c61610d61565b600073ffffffffffffffffffffffffffffffffffffffff168173ffffffffffffffffffffffffffffffffffffffff1603610cd35760006040517f1e4fbdf7000000000000000000000000000000000000000000000000000000008152600401610cca919061198e565b60405180910390fd5b610cdc81610de8565b50565b610d5b848573ffffffffffffffffffffffffffffffffffffffff166323b872dd868686604051602401610d14939291906122d2565b604051602081830303815290604052915060e01b6020820180517bffffffffffffffffffffffffffffffffffffffffffffffffffffffff8381831617835250505050610f6a565b50505050565b610d6961100c565b73ffffffffffffffffffffffffffffffffffffffff16610d87610778565b73ffffffffffffffffffffffffffffffffffffffff1614610de657610daa61100c565b6040517f118cdaa7000000000000000000000000000000000000000000000000000000008152600401610ddd919061198e565b60405180910390fd5b565b6000600260009054906101000a900473ffffffffffffffffffffffffffffffffffffffff16905081600260006101000a81548173ffffffffffffffffffffffffffffffffffffffff021916908373ffffffffffffffffffffffffffffffffffffffff1602179055508173ffffffffffffffffffffffffffffffffffffffff168173ffffffffffffffffffffffffffffffffffffffff167f8be0079c531659141344cd1fd0a4f28419497f9722a3daafe3b4186f6b6457e060405160405180910390a35050565b6060610ee460007f000000000000000000000000000000000000000000000000000000000000000061101490919063ffffffff16565b905090565b6060610f1f60017f000000000000000000000000000000000000000000000000000000000000000061101490919063ffffffff16565b905090565b6000610f37610f316110c4565b8361117b565b9050919050565b600080600080610f4e86866111bc565b925092509250610f5e8282611218565b82935050505092915050565b600080602060008451602086016000885af180610f8d576040513d6000823e3d81fd5b3d925060005191505060008214610fa8576001811415610fc4565b60008473ffffffffffffffffffffffffffffffffffffffff163b145b1561100657836040517f5274afe7000000000000000000000000000000000000000000000000000000008152600401610ffd919061198e565b60405180910390fd5b50505050565b600033905090565b606060ff60001b83146110315761102a8361137c565b90506110be565b81805461103d90612338565b80601f016020809104026020016040519081016040528092919081815260200182805461106990612338565b80156110b65780601f1061108b576101008083540402835291602001916110b6565b820191906000526020600020905b81548152906001019060200180831161109957829003601f168201915b505050505090505b92915050565b60007f000000000000000000000000000000000000000000000000000000000000000073ffffffffffffffffffffffffffffffffffffffff163073ffffffffffffffffffffffffffffffffffffffff1614801561114057507f000000000000000000000000000000000000000000000000000000000000000046145b1561116d577f00000000000000000000000000000000000000000000000000000000000000009050611178565b6111756113f0565b90505b90565b60006040517f190100000000000000000000000000000000000000000000000000000000000081528360028201528260228201526042812091505092915050565b600080600060418451036112015760008060006020870151925060408701519150606087015160001a90506111f388828585611486565b955095509550505050611211565b60006002855160001b9250925092505b9250925092565b6000600381111561122c5761122b612369565b5b82600381111561123f5761123e612369565b5b0315611378576001600381111561125957611258612369565b5b82600381111561126c5761126b612369565b5b036112a3576040517ff645eedf00000000000000000000000000000000000000000000000000000000815260040160405180910390fd5b600260038111156112b7576112b6612369565b5b8260038111156112ca576112c9612369565b5b0361130f578060001c6040517ffce698f70000000000000000000000000000000000000000000000000000000081526004016113069190612398565b60405180910390fd5b60038081111561132257611321612369565b5b82600381111561133557611334612369565b5b0361137757806040517fd78bce0c00000000000000000000000000000000000000000000000000000000815260040161136e91906123b3565b60405180910390fd5b5b5050565b606060006113898361157a565b90506000602067ffffffffffffffff8111156113a8576113a7611cd3565b5b6040519080825280601f01601f1916602001820160405280156113da5781602001600182028036833780820191505090505b5090508181528360208201528092505050919050565b60007f8b73c3c69bb8fe3d512ecc4cf759cc79239f7b179b0ffacaa9a75d522b39400f7f00000000000000000000000000000000000000000000000000000000000000007f0000000000000000000000000000000000000000000000000000000000000000463060405160200161146b9594939291906123ce565b60405160208183030381529060405280519060200120905090565b60008060007f7fffffffffffffffffffffffffffffff5d576e7357a4501ddfe92f46681b20a08460001c11156114c6576000600385925092509250611570565b6000600188888888604051600081526020016040526040516114eb949392919061243d565b6020604051602081039080840390855afa15801561150d573d6000803e3d6000fd5b505050602060405103519050600073ffffffffffffffffffffffffffffffffffffffff168173ffffffffffffffffffffffffffffffffffffffff160361156157600060016000801b93509350935050611570565b8060008060001b935093509350505b9450945094915050565b60008060ff8360001c169050601f8111156115c1576040517fb3512b0c00000000000000000000000000000000000000000000000000000000815260040160405180910390fd5b80915050919050565b600080fd5b600080fd5b6000819050919050565b6115e7816115d4565b81146115f257600080fd5b50565b600081359050611604816115de565b92915050565b600073ffffffffffffffffffffffffffffffffffffffff82169050919050565b60006116358261160a565b9050919050565b6116458161162a565b811461165057600080fd5b50565b6000813590506116628161163c565b92915050565b6000819050919050565b61167b81611668565b811461168657600080fd5b50565b60008135905061169881611672565b92915050565b6000806000606084860312156116b7576116b66115ca565b5b60006116c5868287016115f5565b93505060206116d686828701611653565b92505060406116e786828701611689565b9150509250925092565b600060208284031215611707576117066115ca565b5b6000611715848285016115f5565b91505092915050565b60008115159050919050565b6117338161171e565b82525050565b600060208201905061174e600083018461172a565b92915050565b60007fff0000000000000000000000000000000000000000000000000000000000000082169050919050565b61178981611754565b82525050565b600081519050919050565b600082825260208201905092915050565b60005b838110156117c95780820151818401526020810190506117ae565b60008484015250505050565b6000601f19601f8301169050919050565b60006117f18261178f565b6117fb818561179a565b935061180b8185602086016117ab565b611814816117d5565b840191505092915050565b61182881611668565b82525050565b6118378161162a565b82525050565b611846816115d4565b82525050565b600081519050919050565b600082825260208201905092915050565b6000819050602082019050919050565b61188181611668565b82525050565b60006118938383611878565b60208301905092915050565b6000602082019050919050565b60006118b78261184c565b6118c18185611857565b93506118cc83611868565b8060005b838110156118fd5781516118e48882611887565b97506118ef8361189f565b9250506001810190506118d0565b5085935050505092915050565b600060e08201905061191f600083018a611780565b818103602083015261193181896117e6565b9050818103604083015261194581886117e6565b9050611954606083018761181f565b611961608083018661182e565b61196e60a083018561183d565b81810360c083015261198081846118ac565b905098975050505050505050565b60006020820190506119a3600083018461182e565b92915050565b6000610100820190506119bf600083018b61182e565b6119cc602083018a61182e565b6119d9604083018961182e565b6119e6606083018861181f565b6119f3608083018761181f565b611a0060a083018661182e565b611a0d60c083018561183d565b611a1a60e083018461181f565b9998505050505050505050565b600080fd5b60006101008284031215611a4357611a42611a27565b5b81905092915050565b600080fd5b600080fd5b600080fd5b60008083601f840112611a7157611a70611a4c565b5b8235905067ffffffffffffffff811115611a8e57611a8d611a51565b5b602083019150836001820283011115611aaa57611aa9611a56565b5b9250929050565b60008060006101208486031215611acb57611aca6115ca565b5b6000611ad986828701611a2c565b93505061010084013567ffffffffffffffff811115611afb57611afa6115cf565b5b611b0786828701611a5b565b92509250509250925092565b600060208284031215611b2957611b286115ca565b5b6000611b3784828501611653565b91505092915050565b7f4f72646572206e6f742076616c69646174656400000000000000000000000000600082015250565b6000611b7660138361179a565b9150611b8182611b40565b602082019050919050565b60006020820190508181036000830152611ba581611b69565b9050919050565b611bb58161162a565b82525050565b611bc4816115d4565b82525050565b61010082016000820151611be16000850182611bac565b506020820151611bf46020850182611bac565b506040820151611c076040850182611bac565b506060820151611c1a6060850182611878565b506080820151611c2d6080850182611878565b5060a0820151611c4060a0850182611bac565b5060c0820151611c5360c0850182611bbb565b5060e0820151611c6660e0850182611878565b50505050565b60006101a082019050611c826000830189611bca565b611c9061010083018861183d565b611c9e61012083018761182e565b611cac61014083018661181f565b611cba61016083018561181f565b611cc861018083018461181f565b979650505050505050565b7f4e487b7100000000000000000000000000000000000000000000000000000000600052604160045260246000fd5b600061012082019050611d18600083018c61183d565b611d25602083018b61182e565b611d32604083018a61182e565b611d3f606083018961182e565b611d4c608083018861181f565b611d5960a083018761181f565b611d6660c083018661182e565b611d7360e083018561183d565b611d8161010083018461181f565b9a9950505050505050505050565b7f496e76616c6964207369676e6174757265000000000000000000000000000000600082015250565b6000611dc560118361179a565b9150611dd082611d8f565b602082019050919050565b60006020820190508181036000830152611df481611db8565b9050919050565b7f4f6e6c79206d616b65722063616e2063616c6c20707265496e7465726163746960008201527f6f6e000000000000000000000000000000000000000000000000000000000000602082015250565b6000611e5760228361179a565b9150611e6282611dfb565b604082019050919050565b60006020820190508181036000830152611e8681611e4a565b9050919050565b7f4f7264657220616c72656164792076616c696461746564000000000000000000600082015250565b6000611ec360178361179a565b9150611ece82611e8d565b602082019050919050565b60006020820190508181036000830152611ef281611eb6565b9050919050565b7f496e636f72726563742045544820616d6f756e742073656e7400000000000000600082015250565b6000611f2f60198361179a565b9150611f3a82611ef9565b602082019050919050565b60006020820190508181036000830152611f5e81611f22565b9050919050565b7f4554482073656e7420666f722045524332302073776170000000000000000000600082015250565b6000611f9b60178361179a565b9150611fa682611f65565b602082019050919050565b60006020820190508181036000830152611fca81611f8e565b9050919050565b60008135611fde8161163c565b80915050919050565b60008160001b9050919050565b600073ffffffffffffffffffffffffffffffffffffffff61201484611fe7565b9350801983169250808416831791505092915050565b6000819050919050565b600061204f61204a6120458461160a565b61202a565b61160a565b9050919050565b600061206182612034565b9050919050565b600061207382612056565b9050919050565b6000819050919050565b61208d82612068565b6120a06120998261207a565b8354611ff4565b8255505050565b600081356120b481611672565b80915050919050565b60007fffffffffffffffffffffffffffffffffffffffffffffffffffffffffffffffff6120e984611fe7565b9350801983169250808416831791505092915050565b600061211a61211561211084611668565b61202a565b611668565b9050919050565b6000819050919050565b612134826120ff565b61214761214082612121565b83546120bd565b8255505050565b6000813561215b816115de565b80915050919050565b600061216f826115d4565b9050919050565b60008160001c9050919050565b600061218e82612176565b9050919050565b61219e82612164565b6121b16121aa82612183565b83546120bd565b8255505050565b6000810160008301806121ca81611fd1565b90506121d68184612084565b5050506001810160208301806121eb81611fd1565b90506121f78184612084565b50505060028101604083018061220c81611fd1565b90506122188184612084565b50505060038101606083018061222d816120a7565b9050612239818461212b565b50505060048101608083018061224e816120a7565b905061225a818461212b565b5050506005810160a083018061226f81611fd1565b905061227b8184612084565b5050506006810160c08301806122908161214e565b905061229c8184612195565b5050506007810160e08301806122b1816120a7565b90506122bd818461212b565b5050505050565b6122ce82826121b8565b5050565b60006060820190506122e7600083018661182e565b6122f4602083018561182e565b612301604083018461181f565b949350505050565b7f4e487b7100000000000000000000000000000000000000000000000000000000600052602260045260246000fd5b6000600282049050600182168061235057607f821691505b60208210810361236357612362612309565b5b50919050565b7f4e487b7100000000000000000000000000000000000000000000000000000000600052602160045260246000fd5b60006020820190506123ad600083018461181f565b92915050565b60006020820190506123c8600083018461183d565b92915050565b600060a0820190506123e3600083018861183d565b6123f0602083018761183d565b6123fd604083018661183d565b61240a606083018561181f565b612417608083018461182e565b9695505050505050565b600060ff82169050919050565b61243781612421565b82525050565b6000608082019050612452600083018761183d565b61245f602083018661242e565b61246c604083018561183d565b612479606083018461183d565b9594505050505056fea26469706673582212206cbbd8266b80449e3e110396e2fc8ffbe851bc738b2f99ddee5c947b561fb90f64736f6c634300081e0033",
    "linkReferences": {},
    "deployedLinkReferences": {}
}